{
  "contractName": "RoleContract",
  "abi": [
    {
      "inputs": [],
      "name": "perform_transactions",
      "outputs": [],
      "stateMutability": "nonpayable",
      "type": "function"
    }
  ],
  "bytecode": "0x6080604052348015600f57600080fd5b50606d80601d6000396000f3fe6080604052348015600f57600080fd5b506004361060285760003560e01c8063ff0c51ba14602d575b600080fd5b60336035565b005b56fea264697066735822122001b10fe107393c597acaa5269d1a08a364e0a663e4baf158eeb8fa9b092c357b64736f6c634300080a0033",
  "immutableReferences": {},
  "source": "pragma solidity >=0.4.22 <0.9.0;\r\n    contract RoleContract {\r\n    \r\n    \r\n    function perform_transactions() public{\r\n       \r\n    }\r\n        \r\n}\r\n",
  "sourcePath": "E:\\Athene\\1WisenITSolutions\\03.WebSites\\CodeGenerator\\CodeGeneratorV1\\eTrading\\eTrading-Truffle\\contracts\\RoleContract.sol",
  "compiler": {
    "name": "solc",
    "version": "0.8.10+commit.fc410830.Emscripten.clang"
  },
  "schemaVersion": "3.4.4",
  "updatedAt": "2023-04-29T05:26:46.644Z",
  "networkType": "ethereum",
  "devdoc": {
    "kind": "dev",
    "methods": {},
    "version": 1
  },
  "userdoc": {
    "kind": "user",
    "methods": {},
    "version": 1
  }
}