{
  "contractName": "TransactionDetailsContract",
  "abi": [
    {
      "inputs": [],
      "name": "authorizedByID",
      "outputs": [
        {
          "internalType": "string",
          "name": "",
          "type": "string"
        }
      ],
      "stateMutability": "view",
      "type": "function",
      "constant": true
    },
    {
      "inputs": [],
      "name": "dataOwnerID",
      "outputs": [
        {
          "internalType": "string",
          "name": "",
          "type": "string"
        }
      ],
      "stateMutability": "view",
      "type": "function",
      "constant": true
    },
    {
      "inputs": [],
      "name": "imageFile",
      "outputs": [
        {
          "internalType": "string",
          "name": "",
          "type": "string"
        }
      ],
      "stateMutability": "view",
      "type": "function",
      "constant": true
    },
    {
      "inputs": [],
      "name": "ipAddress",
      "outputs": [
        {
          "internalType": "string",
          "name": "",
          "type": "string"
        }
      ],
      "stateMutability": "view",
      "type": "function",
      "constant": true
    },
    {
      "inputs": [],
      "name": "transactionDetailsID",
      "outputs": [
        {
          "internalType": "string",
          "name": "",
          "type": "string"
        }
      ],
      "stateMutability": "view",
      "type": "function",
      "constant": true
    },
    {
      "inputs": [],
      "name": "transactionDetailsName",
      "outputs": [
        {
          "internalType": "string",
          "name": "",
          "type": "string"
        }
      ],
      "stateMutability": "view",
      "type": "function",
      "constant": true
    },
    {
      "inputs": [
        {
          "internalType": "string",
          "name": "_transactionDetailsID",
          "type": "string"
        },
        {
          "internalType": "string",
          "name": "_transactionDetailsName",
          "type": "string"
        },
        {
          "internalType": "string",
          "name": "_imageFile",
          "type": "string"
        },
        {
          "internalType": "string",
          "name": "_ipAddress",
          "type": "string"
        },
        {
          "internalType": "string",
          "name": "_authorizedByID",
          "type": "string"
        },
        {
          "internalType": "string",
          "name": "_dataOwnerID",
          "type": "string"
        }
      ],
      "name": "perform_transactions",
      "outputs": [],
      "stateMutability": "nonpayable",
      "type": "function"
    }
  ],
  "bytecode": "0x608060405234801561001057600080fd5b506109ab806100206000396000f3fe608060405234801561001057600080fd5b506004361061007d5760003560e01c8063857101861161005b57806385710186146100dc578063c5b4e093146100fa578063e132977514610116578063f6725d4b146101345761007d565b80632371dd7f14610082578063368a754c146100a05780637218f6d9146100be575b600080fd5b61008a610152565b6040516100979190610674565b60405180910390f35b6100a86101e0565b6040516100b59190610674565b60405180910390f35b6100c661026e565b6040516100d39190610674565b60405180910390f35b6100e46102fc565b6040516100f19190610674565b60405180910390f35b610114600480360381019061010f91906107df565b61038a565b005b61011e61041c565b60405161012b9190610674565b60405180910390f35b61013c6104aa565b6040516101499190610674565b60405180910390f35b6005805461015f90610943565b80601f016020809104026020016040519081016040528092919081815260200182805461018b90610943565b80156101d85780601f106101ad576101008083540402835291602001916101d8565b820191906000526020600020905b8154815290600101906020018083116101bb57829003601f168201915b505050505081565b600180546101ed90610943565b80601f016020809104026020016040519081016040528092919081815260200182805461021990610943565b80156102665780601f1061023b57610100808354040283529160200191610266565b820191906000526020600020905b81548152906001019060200180831161024957829003601f168201915b505050505081565b6000805461027b90610943565b80601f01602080910402602001604051908101604052809291908181526020018280546102a790610943565b80156102f45780601f106102c9576101008083540402835291602001916102f4565b820191906000526020600020905b8154815290600101906020018083116102d757829003601f168201915b505050505081565b6004805461030990610943565b80601f016020809104026020016040519081016040528092919081815260200182805461033590610943565b80156103825780601f1061035757610100808354040283529160200191610382565b820191906000526020600020905b81548152906001019060200180831161036557829003601f168201915b505050505081565b85600090805190602001906103a0929190610538565b5084600190805190602001906103b7929190610538565b5083600290805190602001906103ce929190610538565b5082600390805190602001906103e5929190610538565b5081600490805190602001906103fc929190610538565b508060059080519060200190610413929190610538565b50505050505050565b6002805461042990610943565b80601f016020809104026020016040519081016040528092919081815260200182805461045590610943565b80156104a25780601f10610477576101008083540402835291602001916104a2565b820191906000526020600020905b81548152906001019060200180831161048557829003601f168201915b505050505081565b600380546104b790610943565b80601f01602080910402602001604051908101604052809291908181526020018280546104e390610943565b80156105305780601f1061050557610100808354040283529160200191610530565b820191906000526020600020905b81548152906001019060200180831161051357829003601f168201915b505050505081565b82805461054490610943565b90600052602060002090601f01602090048101928261056657600085556105ad565b82601f1061057f57805160ff19168380011785556105ad565b828001600101855582156105ad579182015b828111156105ac578251825591602001919060010190610591565b5b5090506105ba91906105be565b5090565b5b808211156105d75760008160009055506001016105bf565b5090565b600081519050919050565b600082825260208201905092915050565b60005b838110156106155780820151818401526020810190506105fa565b83811115610624576000848401525b50505050565b6000601f19601f8301169050919050565b6000610646826105db565b61065081856105e6565b93506106608185602086016105f7565b6106698161062a565b840191505092915050565b6000602082019050818103600083015261068e818461063b565b905092915050565b6000604051905090565b600080fd5b600080fd5b600080fd5b600080fd5b7f4e487b7100000000000000000000000000000000000000000000000000000000600052604160045260246000fd5b6106ec8261062a565b810181811067ffffffffffffffff8211171561070b5761070a6106b4565b5b80604052505050565b600061071e610696565b905061072a82826106e3565b919050565b600067ffffffffffffffff82111561074a576107496106b4565b5b6107538261062a565b9050602081019050919050565b82818337600083830152505050565b600061078261077d8461072f565b610714565b90508281526020810184848401111561079e5761079d6106af565b5b6107a9848285610760565b509392505050565b600082601f8301126107c6576107c56106aa565b5b81356107d684826020860161076f565b91505092915050565b60008060008060008060c087890312156107fc576107fb6106a0565b5b600087013567ffffffffffffffff81111561081a576108196106a5565b5b61082689828a016107b1565b965050602087013567ffffffffffffffff811115610847576108466106a5565b5b61085389828a016107b1565b955050604087013567ffffffffffffffff811115610874576108736106a5565b5b61088089828a016107b1565b945050606087013567ffffffffffffffff8111156108a1576108a06106a5565b5b6108ad89828a016107b1565b935050608087013567ffffffffffffffff8111156108ce576108cd6106a5565b5b6108da89828a016107b1565b92505060a087013567ffffffffffffffff8111156108fb576108fa6106a5565b5b61090789828a016107b1565b9150509295509295509295565b7f4e487b7100000000000000000000000000000000000000000000000000000000600052602260045260246000fd5b6000600282049050600182168061095b57607f821691505b6020821081141561096f5761096e610914565b5b5091905056fea2646970667358221220e69ee349d3308d4f544f5a99b75d13b52b6c30b123b150b3906cc979c37fe3af64736f6c634300080a0033",
  "immutableReferences": {},
  "source": "pragma solidity >=0.4.22 <0.9.0;\r\n    contract TransactionDetailsContract {\r\n    string public transactionDetailsID;\r\n\tstring public transactionDetailsName;\r\n\tstring public imageFile;\r\n\tstring public ipAddress;\r\n\tstring public authorizedByID;\r\n\tstring public dataOwnerID;\r\n\t\r\n    \r\n    function perform_transactions(string memory _transactionDetailsID, string memory _transactionDetailsName, string memory _imageFile, string memory _ipAddress, string memory _authorizedByID, string memory _dataOwnerID) public{\r\n       transactionDetailsID = _transactionDetailsID;\r\n\t\ttransactionDetailsName = _transactionDetailsName;\r\n\t\timageFile = _imageFile;\r\n\t\tipAddress = _ipAddress;\r\n\t\tauthorizedByID = _authorizedByID;\r\n\t\tdataOwnerID = _dataOwnerID;\r\n\t\t\r\n    }\r\n        \r\n}\r\n",
  "sourcePath": "E:\\Athene\\1WisenITSolutions\\03.WebSites\\CodeGenerator\\CodeGeneratorV1\\eTrading\\eTrading-Truffle\\contracts\\TransactionDetailsContract.sol",
  "compiler": {
    "name": "solc",
    "version": "0.8.10+commit.fc410830.Emscripten.clang"
  },
  "schemaVersion": "3.4.4",
  "updatedAt": "2023-04-29T05:26:48.104Z",
  "networkType": "ethereum",
  "devdoc": {
    "kind": "dev",
    "methods": {},
    "version": 1
  },
  "userdoc": {
    "kind": "user",
    "methods": {},
    "version": 1
  }
}